:020000040800F2
:100000000804002045010008AD0500080D030008A4
:10001000A90500088D010008210700080000000064
:10002000000000000000000000000000D1050008F2
:100030009101000800000000AF050008BD0600089F
:100040005F0100085F0100085F0100085F01000810
:100050005F0100085F0100085F0100085F01000800
:100060005F0100085F0100085F0100085F010008F0
:100070005F0100085F0100085F0100085F010008E0
:100080005F0100085F0100085F0100085F010008D0
:100090005F0100085F0100085F0100085F010008C0
:1000A0005F0100085F0100085F0100085F010008B0
:1000B0005F0100085F0100085F0100085F010008A0
:1000C0005F0100085F0100085F0100085F01000890
:1000D0005F0100085F0100085F0100085F01000880
:1000E0005F0100085F0100085F0100085F01000870
:1000F0005F0100085F0100085F0100085F01000860
:100100005F0100085F0100085F0100085F0100084F
:100110005F0100085F0100085F0100085F0100083F
:100120005F0100085F0100085F0100085F0100082F
:10013000DFF80CD000F018F8004800474507000829
:10014000080400200648804706480047FEE7FEE70F
:10015000FEE7FEE7FEE7FEE7FEE7FEE7FEE7FEE777
:10016000C106000831010008064C074D06E0E068B2
:1001700040F0010394E8070098471034AC42F6D3EE
:10018000FFF7DAFFC4070008E407000800BFFEE736
:10019000704700B5034603E04FF47A7000F006F8AC
:1001A000181EA3F101018BB2F6D100BD00EBC00116
:1001B000C9004FF0E02251610021916105211161D8
:1001C00000BF4FF0E021096901F480310029F8D027
:1001D0004FF0E021096921F001014FF0E0221161A7
:1001E00070472DE9F041024600250026002000233B
:1001F0000024002791F803C00CF00F0591F803C00C
:100200000CF0100CBCF1000F03D091F802C04CEAC6
:10021000050591F800C0BCF1000F31D01468002032
:100220002BE04FF0010C0CFA00F3B1F800C00CEA1F
:1002300003069E4220D183004FF00F0C0CFA03F707
:10024000BC4305FA03FC4CEA040491F803C0BCF17A
:10025000280F06D14FF0010C0CFA00FCC2F814C0B4
:100260000AE091F803C0BCF1480F05D14FF0010C32
:100270000CFA00FCC2F810C0401C0828D1D314604E
:10028000B1F800C0BCF1FF0F34DD546800202EE04F
:1002900000F1080C4FF0010808FA0CF3B1F800C0A7
:1002A0000CEA03069E4221D183004FF00F0C0CFA9A
:1002B00003F7BC4305FA03FC4CEA040491F803C0BD
:1002C000BCF1280F05D100F1080C08FA0CF8C2F8AF
:1002D000148091F803C0BCF1480F07D100F1080C5D
:1002E0004FF0010808FA0CF8C2F81080401C0828EA
:1002F000CED35460BDE8F0810146886880B2704773
:100300004161704701617047C160704700BFFEE7FF
:1003100008B50121082000F04BF94FF47040ADF80A
:10032000000001208DF8020048208DF80300694686
:100330000848FFF756FF4FF47060ADF8000010203A
:100340008DF8030003208DF8020069460148FFF78D
:1003500048FF08BD000C014070B500254FF47E41F8
:100360007D48FFF7D1FF7C48FFF7C6FF044604F441
:100370007044B4F5704F30D01420FFF70AFF764870
:10038000FFF7BAFF044604F47044B4F5704F24D06C
:100390007148FFF7B1FF00F47F44B4F5FC4F0ED075
:1003A000B4F53E4F09D0B4F55E4F04D0B4F56E4FAE
:1003B00007D1042506E0082504E00C2502E01025FD
:1003C00000E000BF00BF05E06348FFF795FF04466B
:1003D00004F47044B4F5704FF6D14FF47D415E489B
:1003E000FFF792FF5C48FFF787FF044604F4704470
:1003F000B4F5704F30D01420FFF7CBFE5648FFF70E
:100400007BFF044604F47044B4F5704F24D0524886
:10041000FFF772FF00F47F44B4F5FA4F0ED0B4F545
:100420003D4F09D0B4F55D4F04D0B4F56D4F07D101
:10043000032506E0072504E00B2502E00F2500E078
:1004400000BF00BF05E04448FFF756FF044604F430
:100450007044B4F5704FF6D14FF47B413E48FFF73E
:1004600053FF3D48FFF748FF044604F47044B4F5D9
:10047000704F30D01420FFF78CFE3748FFF73CFF59
:10048000044604F47044B4F5704F24D03248FFF7AA
:1004900033FF00F47F44B4F5F64F0ED0B4F53B4F74
:1004A00009D0B4F55B4F04D0B4F56B4F07D10225EA
:1004B00006E0062504E00A2502E00E2500E000BF64
:1004C00000BF05E02448FFF717FF044604F470441A
:1004D000B4F5704FF6D14FF477411F48FFF714FF82
:1004E0001D48FFF709FF044604F47044B4F5704F4B
:1004F00030D01420FFF74DFE1748FFF7FDFE0446ED
:1005000004F47044B4F5704F24D01348FFF7F4FEA0
:1005100000F47F44B4F5EE4F0ED0B4F5374F09D058
:10052000B4F5574F04D0B4F5674F07D1012506E065
:10053000052504E0092502E00D2500E000BF00BF0D
:1005400005E00548FFF7D8FE044604F47044B4F50E
:10055000704FF6D1284670BD000C014008B501214E
:10056000442000F025F80220ADF8000010208DF89E
:10057000030003208DF8020069460948FFF731FEA9
:1005800002210748FFF7BEFE2020ADF800006946B3
:100590000448FFF726FE20210248FFF7B3FE08BDFE
:1005A000000801400018014000BFFEE77047704797
:1005B00029B1064A92690243044B9A6104E0034A56
:1005C00092698243014B9A6170470000001002401B
:1005D000704710B500F002F810BD00000CB5002007
:1005E000019000903348006840F480303149086041
:1005F00000BF3048006800F4003000900198401CB3
:100600000190009818B90198B0F5A06FF1D1294870
:10061000006800F4003010B10120009001E00020DB
:1006200000900098012843D12348006840F0100052
:10063000214908600846006820F003000860084669
:10064000006840F0020008601A4840681949486094
:100650000846406848600846406840F4806048604A
:100660000846406820F47C1048600846406840F422
:10067000E81048600846006840F08070086000BFDD
:100680000C48006800F000700028F9D00948406864
:1006900020F00300074948600846406840F0020027
:1006A000486000BF0348406800F00C000828F9D1FA
:1006B0000CBD000000100240002002407047000006
:1006C00010B51348006840F0010011490860084661
:1006D0004068104908400E494860084600680E49C5
:1006E00008400B4908600846006820F48020086034
:1006F0000846406820F4FE0048604FF41F00886000
:10070000FFF767FF4FF000600449086010BD00006C
:10071000001002400000FFF8FFFFF6FE08ED00E0C9
:1007200000BFFEE702E008C8121F08C1002AFAD184
:1007300070477047002001E001C1121F002AFBD161
:1007400070470000FFF70AFFFFF7E2FD02211A4899
:10075000FFF7D6FD2FE0FFF7FFFD184908700846A8
:10076000007820B902211448FFF7CAFD23E00020D9
:100770001349086012E002210F48FFF7C3FD0A2069
:10078000FFF707FD02210C48FFF7BAFD0F20FFF726
:1007900000FD0B480068401C0949086008480068D3
:1007A000064909788842E6DB02210348FFF7AAFDE3
:1007B000002002490870CEE7000801400400002034
:1007C00000000020E40700080000002008000000EE
:1007D00024070008EC0700080800002000040000BF
:0C07E000340700080000000000000000CA
:0400000508000131BD
:00000001FF
