:020000040800F2
:100000005804002045010008C50B00085B0B0008E0
:10001000C10B0008A50900087912000800000000C3
:10002000000000000000000000000000390F000880
:10003000A909000800000000DF0E00084D100008AC
:100040005F0100085F0100085F0100085F01000810
:100050005F0100085F0100085F0100085F01000800
:100060005F0100085F0100085F0100085F010008F0
:100070005F0100085F0100085F0100085F010008E0
:100080005F0100085F0100085F0100085F010008D0
:100090005F0100085F0100085F0100085F010008C0
:1000A0005F0100085F0100085F0100085F010008B0
:1000B0005F0100085F0100085F0100085F010008A0
:1000C0005F0100085F0100085F0100085F01000890
:1000D0005F0100085F0100085F0100085F01000880
:1000E0005F0100085F0100085F0100085F01000870
:1000F0005F0100085F0100085F0100085F01000860
:100100005F0100085F0100085F0100085F0100084F
:100110005F0100085F0100085F0100085F0100083F
:100120005F0100085F0100085F0100085F0100082F
:10013000DFF80CD000F0B8FA004800474913000877
:10014000580400200648804706480047FEE7FEE7BF
:10015000FEE7FEE7FEE7FEE7FEE7FEE7FEE7FEE777
:10016000511000083101000880EA010210B502F0C8
:100170000043400022D04A001FD0010E01EB126163
:10018000C0F35600C2F3560240F4000042F40002ED
:10019000A0FB022000047F39140400D0401C50EA68
:1001A000124001D44000491EC2B20C0604EBD0102C
:1001B000401C4008802A02D003E0002010BD20F03F
:1001C0000100002900DA0020184310BD30B480EA95
:1001D000010202F0004530F0004221F0004013D04F
:1001E00090B1C30DD40DC2F31601C0F31600E41A8A
:1001F00041F4000140F400027D34914201D3641CBB
:1002000000E04900002C02DA30BC002070474FF4B7
:1002100000000023914201D3891A034340084FEAAA
:100220004101F7D151B1914202D14FF0004105E0B7
:1002300002D24FF0010101E06FF0010103EBC45065
:10024000284430BC00F09BB92DE9FE4F804681EA7E
:100250000300C00F0C46009021F0004123F0004540
:10026000B8EB0200A94105D24046214690461C4603
:100270000B46024623F00040104347D0270DC7F33A
:100280000A00C3F30A510290401A019040286BDA29
:10029000C3F3130040F4801B0098924620B1002362
:1002A000D2EB030A63EB0B0B01985946C0F14002F5
:1002B000504600F043F906460D4650465946019A0D
:1002C00000F04BF910EB08006141002487EA11525D
:1002D00084EAE7731A4340D0009A62B3019A012A74
:1002E0004FEA075215DC001B61EB02014FF00042A0
:1002F00002EA0752CDE90042001C41F58011324666
:100300002B4600F082F903B0BDE8F08F404621464D
:10031000F9E7001B61EB0201001C41F58013001896
:100320005B412018A2F5001747EB030140EAD570A6
:10033000B6196D4111E06D084FEA360645EAC07501
:100340004FEA0752001B61EB0201001C41F58011CE
:1003500049084FEA30000019514132462B4603B09C
:10036000BDE8F04F00F042B90098012240000023A0
:10037000D0EB020263EBE073009821464FEAE07491
:10038000B8EB000061EB0401E9E783F000435BE7B1
:1003900081F0004158E72DE9FE4F81EA030404F0A3
:1003A000004421F0004100944FF0000B23F0004383
:1003B00050EA01045ED052EA03045BD0C3F30A544E
:1003C000C1F30A552C44A4F2F3340194A0FB025467
:1003D000C1F3130141F48011C3F3130343F48013F9
:1003E00001FB024400FB034E840A970A44EA81544D
:1003F00047EA8357A4FB076802958D0A05FB07852A
:100400004FEA932C04FB0C542705029D4FEA065833
:1004100047EA1637B5EB08056EEB070C870E920E10
:1004200047EA811742EA8312A7FB0201B6EB0B01F0
:1004300064EB00042B0D43EA0C335E1844EB1C50B4
:10044000DA465146E7FB0201C5F313044FEA0B33CA
:1004500043EA14534FEA0432019C43EA0603A4F131
:100460000C040294009CCDE900B400F0CEF803B077
:10047000BDE8F08F00200146F9E7962300221146DF
:1004800000F086B800F0004220F00040C10DC0F33B
:10049000160040F400007F2901DA002070479629F9
:1004A00003DCC1F19601C84001E096398840002A7A
:1004B000F4D04042704700F0004230F000400AD0D3
:1004C000C10D01F56071C0F3160042EA0151C20886
:1004D00040071143704700200146704701F0004378
:1004E00030B421F0004150EA010206D00A0DA2F515
:1004F0006072C1F31301002A02DC30BC0020704797
:10050000440F44EAC104C100E01830BC00EBC25003
:1005100000F035B8002801DBC0F10040002901DB04
:10052000C1F1004181427047002801DBC0F1004069
:10053000002901DBC1F1004188427047202A04DB19
:10054000203A00FA02F1002070479140C2F12003E6
:1005500020FA03F3194390407047202A06DBCB179B
:10056000203A41FA02F043EAE07306E041FA02F36E
:10057000D040C2F12002914008431946704700293B
:10058000A8BF7047401C490008BF20F00100704719
:1005900010B4B0FA80FC00FA0CF050EA010404BF79
:1005A00010BC704749B1CCF1200421FA04F411FACF
:1005B0000CF118BF012121430843A3EB0C01CB1D13
:1005C0004FEA00614FEA102042BF002010BC704784
:1005D00000EBC35010440029A4BF10BC7047401C5E
:1005E000490008BF20F0010010BC704710B5141E70
:1005F00073F1000408DA401C41F1000192185B41DC
:100600001A4301D120F0010010BD2DE9F04D9246B2
:100610009B4611B1B1FA81F202E0B0FA80F22032C9
:100620009046FFF78BFF04460F4640EA0A0041EA76
:100630000B0153465A46084313D0114653EA0100B2
:1006400019D0C8F14002504600F040F805460E4669
:10065000504659464246FFF771FF084305D0012036
:1006600004E020463946BDE8F08D0020054346EA07
:10067000E0762C4337430A986305E40AA0EB0800B0
:100680000022FD0A44EA47540A3002D50020014600
:10069000E9E7010510196941DDE9084500196941DB
:1006A000BDE8F04DA2E70000064C074D06E0E0680B
:1006B00040F0010394E8070098471034AC42F6D3A9
:1006C000FFF73AFDAC1C0008CC1C0008202A04DB14
:1006D000203A21FA02F00021704721FA02F3D040BB
:1006E000C2F12002914008431946704721B1826847
:1006F00042F00102826003E0826822F0010282601F
:100700007047000010B504461248844208D1012108
:10071000401500F001FC0021601500F0FDFB17E022
:100720000D48844208D10121001500F0F5FB00219D
:10073000201500F0F1FB0BE00848844208D10121AC
:10074000C80300F0E9FB00214FF4004000F0E4FB97
:1007500010BD00000024014000280140003C014081
:10076000014600208A6802F004020AB1012000E07C
:10077000002070470146C86C80B2704702460020D6
:1007800013680B400BB1012000E0002070470146C8
:1007900000208A6802F008020AB1012000E000206F
:1007A0007047000030B502460020002350680F4C0F
:1007B00020400D790C6844EA05242043506090687D
:1007C0000B4C2040D1E902542C434D7944EA4504B6
:1007D00020439060D06A20F470000C7C641EE4B268
:1007E000234340EA0350D06230BD0000FFFEF0FF1B
:1007F000FDF7F1FFF0B504460D4600200021092D5C
:1008000011DDE068A5F10A0606EB4607072606FAA1
:1008100007F18843A5F10A0606EB460603FA06F13E
:100820000843E0600CE0206905EB4507072606FA5F
:1008300007F1884305EB450603FA06F108432061FA
:10084000072A0FDA606B561E06EB86071F2606FA8C
:1008500007F18843561E06EB860605FA06F10843A3
:10086000606322E00D2A0FDA206BD61F06EB8607A5
:100870001F2606FA07F18843D61F06EB860605FAFF
:1008800006F10843206310E0E06AA2F10D0606EBD2
:1008900086071F2606FA07F18843A2F10D0606EB2C
:1008A000860605FA06F10843E062F0BD816841F072
:1008B00008018160704721B1826842F4A002826021
:1008C00003E0826822F4A00282607047816841F0F0
:1008D000040181607047000000B587B001214FF42A
:1008E000017000F009FB4FF4004000F0F9FA01201C
:1008F000ADF8040000208DF8070001A91A4800F0A7
:100900009DF81A48FFF7FEFE002002908DF80C00BB
:100910008DF80D004FF46020049000200590012018
:100920008DF8180002A91148FFF73CFF07230122A8
:1009300000210E48FFF75EFF01210C48FFF7D6FEAD
:100940000A48FFF7B3FF00BF0848FFF720FF002861
:10095000FAD10648FFF7BAFF00BF0448FFF700FFCF
:100960000028FAD107B000BD000801400024014072
:1009700008B50121042000F0BFFA4020ADF80000C6
:1009800010208DF8030003208DF80200694604480A
:1009900000F054F84021024800F0DBF808BD0000E8
:1009A0000008014000BFFEE77047000010B56FF07F
:1009B000040000F037FB0A4800680A49B0FBF1F078
:1009C000094908700846007800EB4001C1EBC010EF
:1009D0004FF6FF7101EAC0000449088010BD000015
:1009E0002000002000127A00340000203600002091
:1009F0000146114A12884A434FF0E0235A6100220F
:100A00009A611A46126942F001021A6100BF4FF062
:100A1000E022106900F001021AB100F48032002ACD
:100A2000F5D04FF0E022126922F001024FF0E023EE
:100A30001A6100229A617047360000202DE9F041CA
:100A4000024600250026002000230024002791F8FC
:100A500003C00CF00F0591F803C00CF0100CBCF1B2
:100A6000000F03D091F802C04CEA050591F800C0D0
:100A7000BCF1000F31D0146800202BE04FF0010CC6
:100A80000CFA00F3B1F800C00CEA03069E4220D134
:100A900083004FF00F0C0CFA03F7BC4305FA03FC7C
:100AA0004CEA040491F803C0BCF1280F06D14FF0C2
:100AB000010C0CFA00FCC2F814C00AE091F803C063
:100AC000BCF1480F05D14FF0010C0CFA00FCC2F844
:100AD00010C0401C0828D1D31460B1F800C0BCF18C
:100AE000FF0F34DD546800202EE000F1080C4FF0B9
:100AF000010808FA0CF3B1F800C00CEA03069E42A4
:100B000021D183004FF00F0C0CFA03F7BC4305FA18
:100B100003FC4CEA040491F803C0BCF1280F05D192
:100B200000F1080C08FA0CF8C2F8148091F803C020
:100B3000BCF1480F07D100F1080C4FF0010808FA8A
:100B40000CF8C2F81080401C0828CED35460BDE8D1
:100B5000F081416170470161704700BFFEE700000E
:100B600010B501210748FFF7F6FF02210548FFF7FE
:100B7000F2FF02210348FFF7ECFF01210148FFF7D4
:100B8000E8FF10BD000C014010B501210548FFF73A
:100B9000E2FF02210348FFF7DCFF02210148FFF7D3
:100BA000DAFF10BD000C014010B501210348FFF72A
:100BB000D2FF01210148FFF7CCFF10BD000C01401E
:100BC00000BFFEE7704770B5002418E004F1B000E4
:100BD000002100F078F90021084600F074F90021A6
:100BE000102000F070F9002505E00121002000F040
:100BF0006AF9681CC5B2802DF7DB601CC4B2082CF2
:100C0000E4DB70BD10B500218D2000F05CF90021FF
:100C1000142000F058F90021AF2000F054F910BD65
:100C200008B50121082000F067F90320ADF80000A5
:100C300010208DF8030003208DF8020069463D481E
:100C4000FFF7FCFE03213B48FFF785FF4FF4487098
:100C5000FFF7CEFE0021AE2000F035F90021084656
:100C600000F031F90021102000F02DF90021402082
:100C700000F029F90021B02000F025F900218120A1
:100C800000F021F90021FF2000F01DF90021A12032
:100C900000F019F90021A62000F015F90021A82084
:100CA00000F011F900213F2000F00DF90021C820CB
:100CB00000F009F90021D32000F005F900210846D1
:100CC00000F001F90021D52000F0FDF8002180207E
:100CD00000F0F9F80021D82000F0F5F800210520F7
:100CE00000F0F1F80021D92000F0EDF80021F1200A
:100CF00000F0E9F80021DA2000F0E5F800211220E8
:100D000000F0E1F80021DB2000F0DDF800213020C8
:100D100000F0D9F800218D2000F0D5F80021142032
:100D200000F0D1F80021AF2000F0CDF8FFF74BFF25
:100D300008BD0000000C014070B504460D4605F1E9
:100D4000B000002100F0BFF8102141EA141000218A
:100D500000F0B9F804F00F00002100F0B4F870BD05
:100D60002DE9F04707460E46904699460025002497
:100D7000A8F12000C5B27F2F02DD0027B01CC6B24B
:100D8000B9F1100F24D131463846FFF7D5FF0024C2
:100D900008E004EB0511194A505C012100F093F8BA
:100DA000601CC4B2082CF4DB701CC1B23846FFF7DB
:100DB000C3FF002409E004EB051108310F4A505C21
:100DC000012100F080F8601CC4B2082CF3DB12E0B3
:100DD00031463846FFF7B0FF00240AE005EB450135
:100DE000074A02EB4101085D012100F06CF8601C2C
:100DF000C4B2062CF2DBBDE8F0870000BA1600088A
:100E0000921400082DE9FF5F074691461E460E9D8D
:100E10004FF0000A002435E0301B401EC1B20A200A
:100E200000F02CFBB9FBF0F00A21B0FBF1F201FB62
:100E30001208BAF1000F14D1701EA04211DDB8F1F2
:100E4000000F0CD1AB4605EBDB71491001FB0471BF
:100E5000C8B22B4620220199FFF782FF10E04FF025
:100E6000010AAB4605EBDB71491001FB0471C8B206
:100E700008F13001CAB22B460199FFF771FF00BF9C
:100E8000601CC4B2B442C7DBBDE8FF9F2DE9F0414E
:100E900004460F461546984600260FE0AA5D4346D5
:100EA00039462046FFF75CFF04F10800C4B2782CF5
:100EB00002DD0024B81CC7B2701CC6B2A85D0028B1
:100EC000ECD1BDE8F08170B504460D461DB1E0B22D
:100ED00000F014FA02E0E0B200F0FAF970BD7047D9
:100EE00001460020034A506820F440400843506007
:100EF000704700000010024029B1064A926902437F
:100F0000044B9A6104E0034A92698243014B9A615F
:100F1000704700000010024029B1064AD26802431F
:100F2000044BDA6004E0034AD2688243014BDA6082
:100F30007047000000100240704710B500F002F842
:100F400010BD00000CB500200190009033480068EF
:100F500040F480303149086000BF3048006800F438
:100F6000003000900198401C0190009818B9019839
:100F7000B0F5A06FF1D12948006800F4003010B13D
:100F80000120009001E0002000900098012843D14A
:100F90002348006840F010002149086008460068B6
:100FA00020F0030008600846006840F00200086076
:100FB0001A48406819494860084640684860084631
:100FC000406840F4806048600846406820F47C1027
:100FD00048600846406840F4E810486008460068E9
:100FE00040F08070086000BF0C48006800F000709E
:100FF0000028F9D00948406820F0030007494860FC
:101000000846406840F00200486000BF034840685E
:1010100000F00C000828F9D10CBD000000100240BF
:1010200000200240042808D14FF0E021096941F076
:1010300004014FF0E022116107E04FF0E02109695F
:1010400021F004014FF0E022116170477047000069
:1010500010B51348006840F00100114908600846C7
:101060004068104908400E494860084600680E492B
:1010700008400B4908600846006820F4802008609A
:101080000846406820F4FE0048604FF41F00886066
:10109000FFF753FF4FF000600449086010BD0000E7
:1010A000001002400000FFF8FFFFF6FE08ED00E030
:1010B0002DE9F0470723012200216348FFF79AFB3F
:1010C00001216148FFF7F7FB00BF02215E48FFF7EF
:1010D00055FB0028F9D05C48FFF74CFB5B490860E2
:1010E00008460068FFF7C9F981464FF08B41FFF7CA
:1010F0006DF80446FFF7DFF907460022544BFFF76F
:101100004AF90546FFF7EAF9524908605249514841
:101110000068FFF729F80446FFF7B4F94FF47A7135
:1011200090FBF1F030304D4908702E2048704A494C
:1011300048480068FFF718F80446FFF7A3F9642150
:1011400090FBF1F00A2190FBF1F201FB120030302C
:101150004249887040493F480068FFF705F8044657
:10116000FFF790F90A2190FBF1F090FBF1F201FBFF
:10117000120030303949C870374936480068FEF7E8
:10118000F3FF0446FFF77EF90A2190FBF1F201FB21
:1011900012003030314908715620487100208871A2
:1011A0002C480068FFF787F980462D4A2D4BFFF742
:1011B000F2F806462C4A2D4BFFF7E7F80446FFF7F6
:1011C0008DF92B49086008460068FFF75BF94FF47A
:1011D0007A7190FBF1F0303026490870244800689D
:1011E000FFF750F9642190FBF1F00A2190FBF1F236
:1011F00001FB120030301F4948701D480068FFF79E
:1012000041F90A2190FBF1F090FBF1F201FB120091
:1012100030301849887016480068FFF733F90A2102
:1012200090FBF1F201FB120030301249C8704C20E3
:10123000087175204871782088710020C8710C48A9
:101240000068BDE8F087000000240140380000205D
:10125000000014403C00002000007A4440000020C0
:10126000A4703D0AD70F7D40F6285C8FC2754D40B3
:10127000480000204C00002000BFFEE72DE9F041AF
:1012800005462C4601211148FFF763FC002619E0B2
:10129000274607F08007802F04D102210B48FFF773
:1012A0005AFC03E002210948FFF753FC6006040ED4
:1012B00001210648FFF74FFC01210448FFF749FCD4
:1012C000701CC6B2082EE3DBBDE8F081000C0140C3
:1012D00010B50446FFF744FC7820FFF7CFFFFFF777
:1012E00063FC0020FFF7CAFFFFF75EFC2046FFF714
:1012F000C5FFFFF759FCFFF747FC10BD10B50446CA
:10130000FFF72EFC7820FFF7B9FFFFF74DFC4020D8
:10131000FFF7B4FFFFF748FC2046FFF7AFFFFFF7EA
:1013200043FCFFF731FC10BD02E008C8121F08C1E2
:10133000002AFAD170477047002001E001C1121F56
:10134000002AFBD17047000008B5FFF72FFBFFF71D
:101350000FFB40213E48FFF7FCFBFFF7BDFAFFF70C
:101360005FFCFFF74FFC10233AA201210846FFF76C
:101370008DFD102002230022042100900846FFF773
:1013800041FD63E0FFF794FE344908603449334877
:101390000068FFF7C9F80DD232480068012809D16A
:1013A0003149086031480068401C3049086000201D
:1013B0002C4908602A4929480068FFF7ABF805D294
:1013C0002848006810B901202649086030E0012053
:1013D000FFF70EFB26480068401C254908600846B8
:1013E0000068142824DD20480068012820D11F4807
:1013F000006820490860102002230090084604215C
:1014000002680846FFF7FEFC1A480068102804D15D
:1014100040210F48FFF79FFB03E040210C48FFF7F6
:1014200098FB002011490860114908600E490860C6
:10143000FFF73EFE04461049FFF76CF803D20C4854
:1014400000681E28C3DB0020094908609AE70000F5
:10145000000801404E756D6265723A00040000207C
:101460000000484410000020140000200C00002060
:101470001C000020180000200000FA4310B50246AE
:10148000012000E050430B1EA1F10104E1B2F9D1AB
:1014900010BD0000000000000000002F0000000050
:1014A0000700070000147F147F1400242A7F2A12EB
:1014B00000626408132300364955225000000503DA
:1014C000000000001C224100000041221C0000140A
:1014D000083E08140008083E0808000000A060004C
:1014E00000080808080800006060000000201008DC
:1014F0000402003E5149453E0000427F4000004248
:1015000061514946002141454B31001814127F10AA
:10151000002745454539003C4A49493000017109D9
:10152000050300364949493600064949291E00008D
:101530003636000000005636000000081422410034
:101540000014141414140000412214080002015164
:10155000090600324959513E007C1211127C007F6D
:1015600049494936003E41414122007F4141221C08
:10157000007F49494941007F09090901003E41496D
:10158000497A007F0808087F0000417F4100002061
:1015900040413F01007F08142241007F404040400D
:1015A000007F020C027F007F0408107F003E414153
:1015B000413E007F09090906003E4151215E007F3E
:1015C000091929460046494949310001017F0101B5
:1015D000003F4040403F001F2040201F003F403858
:1015E000403F006314081463000708700807006197
:1015F0005149454300007F41410000552A552A5575
:10160000000041417F00000402010204004040400C
:101610004040000001020400002054545478007F30
:101620004844443800384444442000384444487F07
:1016300000385454541800087E0901020018A4A46C
:10164000A47C007F080404780000447D4000004032
:1016500080847D00007F102844000000417F40000E
:10166000007C04180478007C0804047800384444A2
:10167000443800FC242424180018242418FC007C7E
:101680000804040800485454542000043F444020F7
:10169000003C4040207C001C2040201C003C40308E
:1016A000403C004428102844001CA0A0A07C00441A
:1016B00064544C441414141414140000000000006A
:1016C00000000000000000000000000000F8000022
:1016D0000000000000333000000000100C06100C69
:1016E0000600000000000000000040C07840C07804
:1016F0004000043F04043F040400007088FC0830EC
:101700000000001820FF211E0000F008F000E01883
:10171000000000211C031E211E0000F0088870003C
:1017200000001E2123241927211010160E0000008E
:1017300000000000000000000000000000E01804AD
:101740000200000000071820400000020418E0001A
:1017500000000040201807000000404080F080405A
:1017600040000202010F01020200000000F0000030
:1017700000000101011F0101010000000000000044
:10178000000080B0700000000000000000000000B9
:101790000000000101010101010100000000000042
:1017A00000000030300000000000000000008060F9
:1017B0001804006018060100000000E0100808107E
:1017C000E000000F102020100F00001010F80000A3
:1017D00000000020203F202000000070080808883A
:1017E000700000302824222130000030088888480A
:1017F00030000018202020110E000000C02010F83A
:10180000000000070424243F240000F8088888080A
:1018100008000019212020110E0000E0108888180F
:101820000000000F112020110E0000380808C838F1
:1018300008000000003F00000000007088080888D1
:101840007000001C222121221C0000E0100808105A
:10185000E0000000312222110F00000000C0C00093
:101860000000000000303000000000000080000098
:101870000000000080600000000000008040201098
:101880000800000102040810200040404040404091
:1018900040000404040404040400000810204080F4
:1018A0000000002010080402010000704808080829
:1018B000F0000000003036010000C030C828E810F9
:1018C000E0000718272423140B000000C038E000B4
:1018D0000000203C23020227382008F888888870FE
:1018E0000000203F202020110E00C030080808080A
:1018F0003800071820202010080008F808080810F1
:10190000E000203F202020100F0008F88888E80819
:101910001000203F20202320180008F88888E808BD
:101920001000203F200003000000C03008080838E5
:10193000000007182020221E020008F808000008F6
:10194000F808203F210101213F20000808F808087D
:1019500000000020203F2020000000000808F808B8
:101960000800C08080807F00000008F888C0281828
:101970000800203F20012638200008F80800000059
:101980000000203F20202020300008F8F800F8F860
:101990000800203F003F003F200008F830C000084A
:1019A000F808203F200007183F00E0100808081042
:1019B000E0000F10202020100F0008F80808080889
:1019C000F000203F210101010000E010080808108C
:1019D000E0000F18242438504F0008F888888888C1
:1019E0007000203F2000030C302000708808080899
:1019F00038000038202121221C00180808F80808A7
:101A000018000000203F2000000008F8080000082F
:101A1000F808001F202020201F000878880000C838
:101A20003808000007380E010000F80800F8000828
:101A3000F800033C0700073C030008186880806832
:101A4000180820302C03032C30200838C800C83870
:101A500008000000203F2000000010080808C838D7
:101A600008002038262120201800000000FE020275
:101A700002000000007F40404000000C30C0000029
:101A80000000000000010638C00000020202FE0053
:101A90000000004040407F000000000004020202FD
:101AA0000400000000000000000000000000000032
:101AB000000080808080808080800002020400001E
:101AC0000000000000000000000000008080808016
:101AD00000000019242222223F2008F80080800004
:101AE0000000003F112020110E00000000808080C7
:101AF0000000000E112020201100000000808088CE
:101B0000F800000E112020103F200000808080800F
:101B10000000001F222222221300008080F088880B
:101B200088180020203F2020000000008080808056
:101B30008000006B94949493600008F8008080808B
:101B40000000203F210000203F20008098980000E6
:101B500000000020203F2020000000000080989816
:101B6000000000C08080807F000008F800008080B6
:101B70008000203F24022D302000000808F80000DB
:101B800000000020203F2020000080808080808096
:101B90008000203F20003F20003F80800080808028
:101BA0000000203F210000203F2000008080808036
:101BB0000000001F202020201F0080800080800067
:101BC000000080FFA12020110E0000000080808016
:101BD0008000000E112020A0FF8080808000808087
:101BE000800020203F2120000100000080808080B4
:101BF00080000033242424241900008080E08080A9
:101C000000000000001F20200000808000000080F5
:101C10008000001F202020103F2080808000008056
:101C2000808000010E300806010080800080008066
:101C300080800F300C030C300F000080800080800B
:101C400080000020312E0E31200080808000008036
:101C5000808080818E7018060100008080808080E6
:101C600080000021302C2221300000000000807C08
:101C7000020200000000003F404000000000FF00A2
:101C8000000000000000FF0000000002027C800055
:101C900000000040403F0000000000060101020279
:101CA000040400000000000000000000CC1C00083C
:101CB000000000205400000028130008201D000828
:101CC0005400002004040000381300080000000045
:101CD0000000000000000000000000000000000004
:101CE00000000000000000000000000000A24A0404
:101CF00000000000000000000102030406070809BC
:101D000000000000000000000000000000000000D3
:101D100000000000000000000000000000000000C3
:0400000508000131BD
:00000001FF
